:100000000C94C0010C94F1010C94F1010C94F101D9
:100010000C94F1010C94F1010C94F1010C94F10198
:100020000C94F1010C94210C0C94210C0C94210CD7
:100030000C94F1010C94F1010C94F1010C94F10178
:100040000C94F1010C94F1010C94F1010C94F10168
:100050000C94F1010C94F1010C94F1010C944E0DEF
:100060000C94F1010C94F0090C94C6090C94F10164
:100070000C94F1010C94F1010C94F1010C94F10138
:100080000C94F1010C94F1010C94F1010C94F10128
:100090000C949C090C9472090C94F1010C94F101DC
:1000A0000C94F1010C94F1010C94F1010C94F10108
:1000B0000C94F1010C94F1010C94F1010C94F101F8
:1000C0000C94F1010C94F1010C94F1010C94480989
:1000D0000C941E090C94F1010C94F4080C94CA08B9
:1000E0000C94F101CE0AD10AC00AC40ACA0A080B4C
:1000F000D50AD90ADF0AE30AE70AED0AF10AF50A86
:10010000080BFB0AFF0A030B084AD73B3BCE016EE4
:1001100084BCBFFDC12F3D6C74319ABD56833DDA5E
:100120003D00C77F11BED9E4BB4C3E916BAAAABE6D
:10013000000000803F05A84CCDB2D44EB93836A996
:10014000020C50B9918688083CA6AAAA2ABE0000D3
:1001500000803F0664EC1B3C04BC163E3BE5B93C0A
:10016000C93C37C29E5A3D660498083EEA69AAAA6D
:100170003E000000803F0C94E30A0C94FF0A0C94AC
:10018000B7080C940F070C9441080C94F10A0C94D6
:1001900099220C94C40A0C9483080C94F50A0C94CC
:1001A0006D080C9457080C9432070C94D50A0C94E3
:1001B000E3070C94C6080C94AA080C94D90A0C9472
:1001C0009A080C941E070C94030B0C94C5080C940D
:1001D000D10A0C94ED0A0C94080B0C9496070C941D
:1001E000C00A0C94CA0A0C94CE0A0C949D080C9474
:1001F000E5060C94FB0A0C94DF0A0C9499080C9405
:1002000032080C9440070C94E70AFF040009004CE4
:10021000000A180105200A2F2C2CBE1A1F440200C8
:10022000003F19BA3289010033580C0CBFBE00419F
:100230000232290D0D0386081A2F09BF1A81000901
:10024000232904C057412020474120202043462035
:1002500020485920205641202020434700000021FB
:1002600000240027002A002D003000330001010087
:1002700000040107010A0100002200250028002BCC
:10028000002E003100340002010000050108010BBE
:1002900001000020002300260029002C002F00323E
:1002A000000001000003010601090105050505071D
:1002B0000508080808020202020A0A0808040404E1
:1002C000040101010101010101030303030303030D
:1002D00003040707070C0C0C0C0C0C0C0C0202029C
:1002E0000206060606060606060B0B0B0B0B0B0B8F
:1002F0000B0102102020080810204010204080022E
:10030000010201080402010102040810204080805B
:1003100040201008040201800402018040201008DF
:1003200004020108040201010204081020408001B7
:100330000204081020408000000A0B02090C0D0E78
:100340000807030401000000000000000000000096
:10035000000000000000000000000000000000009D
:10036000000000121110000000000000000000005A
:1003700000000000000000000000000000009922C2
:1003800011241FBECFEFD1E2DEBFCDBF00E00CBF16
:1003900012E0A0E0B2E0E6EBF0E500E00BBF02C047
:1003A00007900D92A434B107D9F726E0A4E4B2E097
:1003B00001C01D92A033B207E1F711E0C0ECD1E01B
:1003C00000E006C021970109802FFE010E94AB23A7
:1003D000CF3BD10780E00807A9F70E94980D0C9445
:1003E00059280C9400000F931F93CF93C62F8A01B6
:1003F000DC01ED91FC910084F185E02D19956C2FC5
:10040000C801CF911F910F910C94830A8F929F92F4
:10041000AF92BF92CF92DF92EF92FF920F931F9312
:10042000CF93DF931F921F92CDB7DEB77C01162FBB
:100430006A0159018FEF9FEF9A838983490186E012
:10044000880E911CD701ED91FC910680F781E02D7B
:10045000B401C7011995AE014F5F5F4F65E5C70154
:100460000E94F301AE014F5F5F4F682DC7010E94EC
:10047000F301AE014F5F5F4F692DC7010E94F30189
:10048000AE014F5F5F4F612FC7010E94F301AC0CBB
:10049000BD1CCA14DB0489F0002319F0F601649135
:1004A00002C0D6016C91AE014F5F5F4FC7010E9441
:1004B000F301BFEFCB1ADB0AECCFD701ED91FC9132
:1004C0000084F185E02D6981C70119956A81D70102
:1004D000ED91FC910084F185E02DC70119950F90F5
:1004E0000F90DF91CF911F910F91FF90EF90DF90D0
:1004F000CF90BF90AF909F908F900895CF92DF9252
:10050000EF92FF92CF93DF93C82F0E94420D6B01B1
:100510007C01CC2311F084EC01C084E88093BC0002
:10052000C0918D03D0918E038091BC0087FD19C0CE
:100530002097D1F30E94420DAB01BC014C195D091B
:100540006E097F09CE01A0E0B0E0481759076A079D
:100550007B0730F31092BC0084E48093BC0081E000
:1005600010C08091B900887F883341F48091B90030
:100570001092BC0094E49093BC0002C08091B9003A
:10058000887FDF91CF91FF90EF90DF90CF9008951B
:100590008F929F92AF92BF92CF92DF92EF92FF9293
:1005A0006B017C018091170690911806892B21F12F
:1005B0000E941D0D4B015C01809117069091180659
:1005C000DC01ED91FC910084F185E02D1995892BDA
:1005D00071F40E941D0DDC01CB0188199909AA094B
:1005E000BB098C159D05AE05BF0530F343C0809156
:1005F0001706909118062EC02091190630911A0600
:1006000080918F03909190032817390791F50E94EC
:100610001D0D4B015C018091190690911A06DC01B9
:10062000ED91FC910084F185E02D1995892B71F4F1
:100630000E941D0DDC01CB0188199909AA09BB098B
:100640008C159D05AE05BF0530F314C080911906C9
:1006500090911A06DC01ED91FC910284F385E02D66
:10066000FF90EF90DF90CF90BF90AF909F908F90D2
:10067000199402C08FEF9FEFFF90EF90DF90CF9023
:10068000BF90AF909F908F90089520911106309168
:100690001206A9015827CA0128E030E0AC01440F36
:1006A000551F97FF06C0CA0161E2862760E19627C1
:1006B00001C0CA012150310989F790931206809335
:1006C00011060895DF92EF92FF920F931F93CF933D
:1006D000DF93CDB7DEB713E0109212061092110629
:1006E000CE010E967C0106E0F701D08092E0E90E83
:1006F000F11C8D2D0E9445036D2D85E096E00E9432
:100700006D08015089F7009111066091120685E08D
:1007100096E00E946D08602F85E096E00E946D08CB
:10072000609113067091140680911506909116063B
:100730000E94C8028F3F910521F0115069F680E0B8
:1007400001C081E0DF91CF911F910F91FF90EF9059
:10075000DF900895CF92DF92EF92FF92CF93DF93D5
:10076000EC016A017B01E889F98982E08083411507
:10077000514E61057105B1F060E079E08DE390E0E4
:10078000A70196010E948923DA01C9010197A109F5
:10079000B109B695A795979587959C01211580E19C
:1007A0003807A8F0E889F989108260E874E88EE1DA
:1007B00090E0A70196010E948923DA01C9010197FF
:1007C000A109B109B695A795979587959C01EC85E8
:1007D000FD853083EE85FF852083188EEC89FD89A9
:1007E00086E08083EA89FB89808180618083EA8951
:1007F000FB89808188608083EA89FB8980818068A9
:100800008083EA89FB8980818F7D8083DF91CF910E
:10081000FF90EF90DF90CF900895AF92BF92CF926C
:10082000DF92EF92FF920F931F93CF93DF93FC0120
:10083000C588D688E188F2888FEF9FEF908F878BED
:10084000E701C60FD71F6C157D0520F5CE01019677
:1008500028812535D9F4C601861B970B968B858B8D
:100860008B010C1B1D0B5F0187E1A80EB11CCE0193
:10087000800F911F8C159D0578F46881C5010E9439
:10088000830A8991F70181937F01F1CF6F5F7F4FD9
:10089000EC01D9CF168A158ADF91CF911F910F9164
:1008A000FF90EF90DF90CF90BF90AF900895EF92C0
:1008B000FF920F931F93CF93DF9300D01F92CDB77A
:1008C000DEB77C01DC015196ED91FC91529781815C
:1008D00090E0AC01465051092381203409F46FC0E7
:1008E00018F42223C9F0A1C0203809F474C0203CB8
:1008F00009F09BC0D70119962D913C911A97159636
:100900004D915C9116971B968D919C911C97480F69
:10091000591F00E060EC7DC0D70117968D919C9126
:100920001897452B29F4FC018081882361F021C0B0
:10093000DC01349681E09D912191921380E0911128
:10094000FACF8823B1F0D7011D962D913C911E97C7
:1009500013964D915C91149701E060E0C7010E94ED
:100960000602D7011F96ED91FC91509781E080839C
:1009700053C0D7011396ED91FC91149712968C9168
:10098000853018F482E090E002C083E090E09C01A2
:100990002F5F3F4FDE0111968F01080F191FAD0128
:1009A000E017F10721F064916D933196F9CFFA01C8
:1009B000E80FF91F60EF608300E060E02AC0F701F4
:1009C0002385348581859285280F391F458156817D
:1009D00000E060E41EC0D7011B962D913C911C974E
:1009E0004217530781F4AF014C5F5F4F15960D908E
:1009F000BC91A02D01978530910529F0FA01219134
:100A0000AF012D93F7CF00E020E030E040E050E070
:100A100060E8C7010E9406020E94420DF701618F43
:100A2000728F838F948F81E001C080E00F900F90D0
:100A30000F900F90DF91CF911F910F91FF90EF904A
:100A40000895CF92DF92EF92FF92CF93DF930E94AF
:100A5000420D6B017C0184E98093BC00C0918D0341
:100A6000D0918E039091BC00892F807194FF18C0A3
:100A70002097C1F30E94420DAB01BC014C195D09E6
:100A80006E097F09CE01A0E0B0E0481759076A0758
:100A90007B0720F31092BC0084E48093BC0081E0CB
:100AA000DF91CF91FF90EF90DF90CF900895CF929C
:100AB000DF92EF92FF92CF93DF938093BB000E946F
:100AC000420D6B017C0184E88093BC00C0918D03D2
:100AD000D0918E038091BC0087FD19C02097D1F37F
:100AE0000E94420DAB01BC014C195D096E097F09E2
:100AF000CE01A0E0B0E0481759076A077B0730F342
:100B00001092BC0084E48093BC0081E023C08091FB
:100B1000B900887F883129F08091B900887F8034BE
:100B200011F480E017C08091B900C82FC87F809170
:100B3000B900887F803229F08091B900887F88349D
:100B400019F40E94210505C01092BC0084E4809332
:100B5000BC008C2FDF91CF91FF90EF90DF90CF9072
:100B60000895CF92DF92EF92FF92CF93DF930E948E
:100B7000420D6B017C0184EA8093BC00C0918D031F
:100B8000D0918E038091BC0087FD19C02097D1F3CE
:100B90000E94420DAB01BC014C195D096E097F0931
:100BA000CE01A0E0B0E0481759076A077B0730F391
:100BB0001092BC0084E48093BC0081E01CC0809152
:100BC000B900887F883029F08091B900887F803112
:100BD00011F480E010C08091B900887F883341F41F
:100BE0008091B9001092BC0094E49093BC0002C0C4
:100BF0008091B900887FDF91CF91FF90EF90DF90D7
:100C0000CF900895CF92DF92EF92FF92CF93DF9330
:100C10008093BB000E94420D6B017C0184E88093AD
:100C2000BC00C0918D03D0918E038091BC0087FDE4
:100C300019C02097D1F30E94420DAB01BC014C19A1
:100C40005D096E097F09CE01A0E0B0E048175907A1
:100C50006A077B0730F31092BC0084E48093BC00E9
:100C600081E019C08091B900887F883299F0809125
:100C7000B900C82FC87F8091B900887F803319F4EC
:100C80000E94210505C01092BC0084E48093BC0042
:100C90008C2F01C080E0DF91CF91FF90EF90DF902B
:100CA000CF9008950F931F93CF93DF93D82F162FD4
:100CB00010921C06C42F413210F0C0E203C0411153
:100CC00001C0C1E08FEF8C0F80936C0310926B0317
:100CD0000E94B10580936B03811162C0DD0F8D2FDF
:100CE0000E94570580936B03882329F0813009F017
:100CF00057C082E055C0812F0E94020680936B038B
:100D0000882329F0813009F04BC083E049C00E945C
:100D1000B10580936B03882329F0813009F040C02E
:100D200084E03EC081E08D0F0E94570580936B03E5
:100D3000882321F08130A1F585E032C00DE613E073
:100D4000D0E080916C038D1318C080E00E947E0279
:100D500080936B03813011F486E022C0883501F561
:100D60008091BB00F80181938F01DF5FD0931C0657
:100D7000D0931B06CD13E5CF0AC081E00E947E020E
:100D800080936B03813041F3803551F309C00E9499
:100D9000210580936B03882319F0813009F487E0E3
:100DA000DF91CF911F910F91089580911C068823A8
:100DB00059F0E0911B069FEF980F90931C06E81BDB
:100DC000F0E0E559FC4F82810895CF92DF92EF92D7
:100DD000FF920F931F93CF93DF936C017A018B01E6
:100DE000C0E0D0E0CE15DF0581F0D8016D918D0116
:100DF000D601ED91FC910190F081E02DC60119958D
:100E0000892B11F02196EECF7E01C701DF91CF91A2
:100E10001F910F91FF90EF90DF90CF900895FC010C
:100E2000538D448D252F30E0842F90E0821B930B4F
:100E3000541710F0CF96089501970895FC01918DF5
:100E4000828D981761F0828DDF01A80FB11D5D962C
:100E50008C91928D9F5F9F73928F90E008958FEF9A
:100E60009FEF0895FC01918D828D981731F0828D4E
:100E7000E80FF11D858D90E008958FEF9FEF0895A5
:100E8000FC01918D228D892F90E0805C9F4F821B09
:100E900091098F739927089581E993E00E94400793
:100EA00021E0892B09F420E0822F08958EE294E05E
:100EB0000E94400721E0892B09F420E0822F089549
:100EC00088E695E00E94400721E0892B09F420E0A4
:100ED000822F08958BEC94E00E94400721E0892B3B
:100EE00009F420E0822F0895FC01848DDF01A80F12
:100EF000B11DA35ABF4F2C91848D90E001968F7342
:100F00009927848FA689B7892C93A089B1898C9160
:100F1000837080648C93938D848D981306C00288AF
:100F2000F389E02D80818F7D80830895EF92FF9279
:100F30000F931F93CF93DF93EC0181E0888F9B8DFC
:100F40008C8D981305C0E889F989808185FD26C0BC
:100F5000F62E0B8D10E00F5F1F4F0F731127E02E41
:100F60008C8DE8120CC00FB607FCFACFE889F9891E
:100F7000808185FFF5CFCE010E947407F1CF8B8D64
:100F8000FE01E80FF11DE35AFF4FF0829FB7F8947E
:100F90000B8FEA89FB89808180620AC09FB7F89431
:100FA000EE89FF896083E889F98980818370806494
:100FB00080839FBF81E090E0DF91CF911F910F91DF
:100FC000FF90EF900895CF93DF93EC01888D8823F5
:100FD000C9F0EA89FB89808185FD05C0A889B989A6
:100FE0008C9186FD0FC00FB607FCF5CF808185FF81
:100FF000F2CFA889B9898C9185FFEDCFCE010E94EF
:101000007407E7CFDF91CF91089580E090E0892BBE
:1010100021F00E946A07811119C080E090E0892BBD
:1010200021F00E946007811114C080E090E0892BBC
:1010300021F00E94560781110FC080E090E0892BBB
:1010400081F00E944C0781110AC008950E9400009F
:10105000E4CF0E940000E9CF0E940000EECF0C9484
:1010600000000895DC0152968D919C915397009752
:1010700039F0DC01ED91FC910680F781E02D1994A7
:101080000895FC01A289B389109741F0ED91FC917C
:1010900011970084F185E02DCD0108C084899589E0
:1010A000DC01ED91FC910084F185E02D1994FC01A7
:1010B000A289B389109741F0ED91FC9111970284B8
:1010C000F385E02DCD0108C084899589DC01ED917F
:1010D000FC910284F385E02D1994FC01A289B38967
:1010E000109741F0ED91FC9111970190F081E02D66
:1010F000CD0108C084899589DC01ED91FC910190B6
:10110000F081E02D1994FC01A289B389109741F078
:10111000ED91FC9111970484F585E02DCD0108C077
:1011200084899589DC01ED91FC910484F585E02D9D
:101130001994089580E090E00895DC015E968D9109
:101140009C915F97DC01ED91FC910084F185E02D8D
:1011500019950895DC015E968D919C915F97DC0155
:10116000ED91FC910284F385E02D19950895DC0141
:101170005E968D919C915F97DC01ED91FC910190C1
:10118000F081E02D199408950895089581E008955F
:101190000E9454281F920F920FB60F9211240BB683
:1011A0000F922F933F934F935F936F937F938F9300
:1011B0009F93AF93BF93EF93FF9381E993E00E94D6
:1011C0007407FF91EF91BF91AF919F918F917F91A4
:1011D0006F915F914F913F912F910F900BBE0F90A8
:1011E0000FBE0F901F9018951F920F920FB60F927F
:1011F00011240BB60F922F933F934F935F936F93EE
:101200007F938F939F93AF93BF93EF93FF9381E966
:1012100093E00E94080CFF91EF91BF91AF919F91D5
:101220008F917F916F915F914F913F912F910F908F
:101230000BBE0F900FBE0F901F9018951F920F922C
:101240000FB60F9211240BB60F922F933F934F932B
:101250005F936F937F938F939F93AF93BF93EF931E
:10126000FF938EE294E00E947407FF91EF91BF918B
:10127000AF919F918F917F916F915F914F913F912E
:101280002F910F900BBE0F900FBE0F901F901895CF
:101290001F920F920FB60F9211240BB60F922F933D
:1012A0003F934F935F936F937F938F939F93AF93EE
:1012B000BF93EF93FF938EE294E00E94080CFF919E
:1012C000EF91BF91AF919F918F917F916F915F91BE
:1012D0004F913F912F910F900BBE0F900FBE0F902B
:1012E0001F9018951F920F920FB60F9211240BB6F4
:1012F0000F922F933F934F935F936F937F938F93AF
:101300009F93AF93BF93EF93FF9388E695E00E947E
:101310007407FF91EF91BF91AF919F918F917F9152
:101320006F915F914F913F912F910F900BBE0F9056
:101330000FBE0F901F9018951F920F920FB60F922D
:1013400011240BB60F922F933F934F935F936F939C
:101350007F938F939F93AF93BF93EF93FF9388E611
:1013600095E00E94080CFF91EF91BF91AF919F9182
:101370008F917F916F915F914F913F912F910F903E
:101380000BBE0F900FBE0F901F9018951F920F92DB
:101390000FB60F9211240BB60F922F933F934F93DA
:1013A0005F936F937F938F939F93AF93BF93EF93CD
:1013B000FF938BEC94E00E947407FF91EF91BF9133
:1013C000AF919F918F917F916F915F914F913F91DD
:1013D0002F910F900BBE0F900FBE0F901F9018957E
:1013E0001F920F920FB60F9211240BB60F922F93EC
:1013F0003F934F935F936F937F938F939F93AF939D
:10140000BF93EF93FF938BEC94E00E94080CFF9145
:10141000EF91BF91AF919F918F917F916F915F916C
:101420004F913F912F910F900BBE0F900FBE0F90D9
:101430001F901895589A599A0895CF92DF92EF927B
:10144000FF920F931F93CF93DF93EB017B0124E077
:10145000E20EF11C8B016C01C61AD70AC601800F7F
:10146000911F0E947323F80181938F01EE15FF05F0
:10147000A9F7CE01DF91CF911F910F91FF90EF90CF
:10148000DF90CF900895AF92BF92DF92EF92FF92DC
:101490000F931F93CF93DF93EC017B018B015C01D2
:1014A00084E0A80EB11CF801D1908F01CE010E94FA
:1014B0007323D81621F06D2DCE010E947B23219637
:1014C000CA15DB0581F7C701DF91CF911F910F91FD
:1014D000FF90EF90DF90BF90AF9008959091010240
:1014E00081E08927809301020E94420D60934402AB
:1014F00070934502809346029093470260910102E7
:1015000085E00C94B20CFC01808191818627918347
:10151000808328E040815181CA019695879540FFDC
:1015200004C031E0832730EA9327918380832150E0
:1015300089F70895CF93DF93E42FF0E0DF01A15EF8
:10154000B94F9C919F5F9C939B3020F0EB01888367
:101550009BE09C93E35EF94F908189131C928083FA
:10156000DF91CF91089590E0FC013197E231F105D0
:1015700008F04EC08827EE58FF4F8F4F0C94AB23D6
:10158000809180008F7703C0809180008F7D809351
:101590008000089580918000877FF9CF84B58F7790
:1015A00002C084B58F7D84BD08958091B0008F778F
:1015B00003C08091B0008F7D8093B000089580912A
:1015C00090008F7707C0809190008F7D03C080913D
:1015D0009000877F8093900008958091A0008F777E
:1015E00007C08091A0008F7D03C08091A000877FFD
:1015F0008093A0000895809120018F7707C080918B
:1016000020018F7D03C080912001877F809320017E
:1016100008952F923F924F925F926F927F928F9296
:101620009F92AF92BF92CF92DF92EF92FF920F9371
:101630001F93CF93DF93782E8B01EA01209709F057
:10164000188263E0662E85E096E00E9432081092D0
:1016500012061092110660E885E096E00E946D087F
:1016600080E80E944503672D85E096E00E946D08A2
:10167000872D0E9445036091130670911406809196
:101680001506909116060E94C8024C010E9445035F
:101690002FEF8216920609F4A1C060911306709193
:1016A000140680911506909116060E94C8027C01CE
:1016B0000E944503092C000CAA08BB08B82DAA27D4
:1016C0009927882747010F2C000CAA08BB08540152
:1016D00099248824882A992AAA2ABB2AEF20E094F0
:1016E00009F47CC060911306709114068091150670
:1016F000909116060E94C8027C010E944503C70112
:101700000F2C000CAA0BBB0BBA2FA92F982F8827E0
:101710001C012D01282839284A285B28EF20E09455
:1017200009F45CC06091130670911406809115064F
:10173000909116060E94C8025C010E944503650153
:101740000B2C000CEE08FF08C228D328E428F5284B
:10175000AB20A09409F442C0609113067091140666
:1017600080911506909116060E94C8025C010E94A5
:1017700045030115110511F0F801A082AB20A094DA
:1017800069F160911306709114068091150690918D
:1017900016060E94C8025C01019601F160911306D1
:1017A0007091140680911506909116060E94C80249
:1017B0008F3FEFEF9E0791F0BA2CAA248A299B292C
:1017C00020911106309112068217930739F4209761
:1017D00011F081E08883B601C70107C06A946110E7
:1017E00032CF60E070E080E090E0DF91CF911F9118
:1017F0000F91FF90EF90DF90CF90BF90AF909F90B0
:101800008F907F906F905F904F903F902F900895B2
:10181000FC01A089B1898C91A689B78982FD0FC08E
:101820009C91818D8F5F8F73228D821749F0218D5E
:10183000DF01A20FB11D5D969C93818F08958C915D
:1018400008951F920F920FB60F9211240BB60F92AC
:101850002F933F938F939F93AF93BF93CF93DF9338
:10186000EF93FF93E0918F03F0919003309709F489
:101870003FC0968DA685B785858591FF04C09C9154
:10188000892321F435C09C91892391F5A389B489DA
:101890009C918589809589238C9386899789019766
:1018A000F1F7208D318DC685D78588E0D901119754
:1018B000F1F798818150D1F78091220690E001964E
:1018C0008F73992720912106281729F090912206DD
:1018D0008093220603C0868D8160868F828D938DD2
:1018E0000197F1F7A389B4899C918589892B8C9301
:1018F000FF91EF91DF91CF91BF91AF919F918F9128
:101900003F912F910F900BBE0F900FBE0F901F9025
:101910001895CF93DF93282F30E0F901E95CFC4F55
:101920008491F901EF50FD4FD491F901E555FD4F38
:10193000C491CC2391F081110E94B30AEC2FF0E006
:10194000EE0FFF1FEF56FD4FA591B491EC91ED23E3
:1019500081E090E021F480E002C080E090E0DF913F
:10196000CF9108951F93CF93DF93282F30E0F90193
:10197000E95CFC4F8491F901EF50FD4FD491F901DE
:10198000E555FD4FC491CC23C1F0162F81110E9463
:10199000B30AEC2FF0E0EE0FFF1FE958FD4FA591C1
:1019A000B4919FB7F894111104C08C91D095D823AD
:1019B00002C0EC91DE2BDC939FBFDF91CF911F9192
:1019C0000895CF93DF9390E0FC01EF50FD4F2491F9
:1019D000FC01E555FD4F8491882361F190E0880F6B
:1019E000991FFC01E35AFD4FC591D491FC01E958C0
:1019F000FD4FA591B491611109C09FB7F8948881FA
:101A0000209582238883EC912E230BC0623061F4F1
:101A10009FB7F8948881322F309583238883EC9187
:101A20002E2B2C939FBF06C08FB7F894E8812E2BE6
:101A300028838FBFDF91CF9108953FB7F8948091AD
:101A4000280690912906A0912A06B0912B0626B56A
:101A5000A89B05C02F3F19F00196A11DB11D3FBFE6
:101A6000BA2FA92F982F8827820F911DA11DB11D74
:101A7000BC01CD0142E0660F771F881F991F4A9570
:101A8000D1F708952FB7F894609124067091250638
:101A900080912606909127062FBF08951F920F92DE
:101AA0000FB60F9211242F933F938F939F93AF9371
:101AB000BF938091240690912506A0912606B091AF
:101AC00027063091230623E0230F2D3720F40196BB
:101AD000A11DB11D05C026E8230F0296A11DB11D51
:101AE000209323068093240690932506A093260630
:101AF000B09327068091280690912906A0912A0686
:101B0000B0912B060196A11DB11D809328069093DC
:101B10002906A0932A06B0932B06BF91AF919F91FF
:101B20008F913F912F910F900FBE0F901F9018959E
:101B3000CF93DF93CDB7DEB7A2970FB6F894DEBF91
:101B40000FBECDBF789484B5826084BD84B58160BA
:101B500084BD85B5826085BD85B5816085BD809178
:101B60006E00816080936E001092810080918100F0
:101B700082608093810080918100816080938100E8
:101B8000809180008160809380008091B1008460AA
:101B90008093B1008091B00081608093B00080910B
:101BA0009100826080939100809191008160809388
:101BB0009100809190008160809390008091A100BD
:101BC00082608093A1008091A10081608093A10038
:101BD0008091A00081608093A000809121018260AB
:101BE0008093210180912101816080932101809166
:101BF000200181608093200180917A00846080932D
:101C00007A0080917A00826080937A0080917A00D5
:101C1000816080937A0080917A00806880937A0056
:101C20001092C10062E083E00E94E10C62E084E077
:101C30000E94E10C61E085E00E94E10C61E086E039
:101C40000E94E10C80E290E00E9433278C0181E148
:101C500092E0D80111969C938E938EE294E05F9669
:101C60009C938E935E9740E855E260E070E00E949E
:101C7000AA03EAE0F2E0E491EF3FF1F4EBE0F2E0F6
:101C80008491ECE0F2E09491E82FF0E0F92BD80198
:101C90001C96FC93EE931B97EDE0F2E08491EEE04E
:101CA000F2E09491E82FF0E0F92B1A96FC93EE9372
:101CB0001997EFE0F2E010C0F0E0D8011C96FC9319
:101CC000EE931B97EBE0F2E0E491F0E01A96FC93C0
:101CD000EE931997ECE0F2E084919F012E5F3F4F65
:101CE0003196E49190E09E2BF801968785873483A6
:101CF0002383F9012491D80112962C93129785E23F
:101D000093E016969C938E9315971B968D919C91BC
:101D10001C971996ED90FC901A97E80EF91EF701A2
:101D2000EB5DFC4F6F015096FC93EE931F97108272
:101D300023E432E018963C932E9317970696549618
:101D40009C938E9353970E943327D80152969C936D
:101D50008E9351978E2DE5E2F3E0815010F01192B1
:101D6000FCCFF801168A158A8FEF9FEF908F878B33
:101D7000D6011C920E94420DF801618F728F838FF1
:101D8000948F81E0858F10936503009364030E9414
:101D90001A0A8091B9008E7F8093B9008091B900B2
:101DA0008D7F8093B90088E48093B80084E48093A9
:101DB000BC0084EF91E090938E0380938D030E948A
:101DC0001A0A40E052EC61E070E081E993E00E9481
:101DD000AA038091170690911806009739F040E009
:101DE00052EC61E070E00E94AA03A9C0E0911906DC
:101DF000F0911A06138E128E118E108E178A168A83
:101E00008FE190E0958F848F848596EF980F9430C2
:101E100048F02EEC280F243028F022EC280F283030
:101E200008F060C021E030E0378B268B2DE130E0F8
:101E3000318F208F2DE030E0338F228F943058F097
:101E40002EEC280F243038F042EC480F483038F49C
:101E500028E630E006C028E630E00C94952220E029
:101E600030E0483010F40C949522A0E0B0E04C91A2
:101E7000943010F40C9471229EEC980F943010F46E
:101E80000C9471228E53883010F00C94712284E0EF
:101E9000842BD9018C93848596EF980F943010F49D
:101EA0000C9474222EEC280F243010F40C9474221D
:101EB00022EC280F283010F00C9478222DE630E028
:101EC000348B238B943010F00C947C229AEF980F73
:101ED00081E001C0880F9A95EAF7858B848D958DF6
:101EE0000197F1F7828D938D892B49F140918F03F2
:101EF00050919003E417F50711F14115510571F068
:101F0000DA0153962D913C915497D9019C91DA01B5
:101F100055968C9180958923D9018C93868D8E7FDF
:101F2000868F1092220610922106F0939003E09380
:101F30008F03A389B4899C918589892B8C931092F6
:101F40006B030E94B10580936B03811118C080ED73
:101F50000E94570580936B03811111C08BE60E948C
:101F6000020680936B0381110AC00E9402068093CF
:101F70006B03811104C00E94210580936B036FE302
:101F800073E08AE090E00E941D0A67E473E080E15C
:101F900090E00E941D0A67E373E086E190E00E94F2
:101FA0001D0A60E573E08CE190E00E941D0AC0907C
:101FB0003703D0903803E0903903F0903A03C7011B
:101FC000B6010E94CB249B0177FF04C02227332750
:101FD000261B370B2B303105BCF420915003309178
:101FE00051034091520350915303C701B6010E941F
:101FF0004F24811109C020E030E0A901C701B601DA
:102000000E944F2481110CC080E090E0A0EAB0E46F
:102010008093370390933803A0933903B0933A0326
:1020200060E086E00E94B20C0E94420DC0906703FF
:10203000D0906803E0906903F0906A036C19609394
:1020400066030E94420DDC01CB018C199D09AE098B
:10205000BF090A97A105B105A0F30E94420D609344
:102060006703709368038093690390936A031091E8
:1020700000026091FC027091FD028091FE0290913D
:10208000FF020E94CB249B0177FF04C02227332745
:10209000261B370BB901330F880B990B0E940325C0
:1020A0002FE832EC45EF5CE30E944F2418161CF138
:1020B0006091F8027091F9028091FA029091FB020E
:1020C0000E94CB249B0177FF04C022273327261BC5
:1020D000370BB901330F880B990B0E9403252FE8AA
:1020E00032EC45EF5CE30E944F24181624F081E0A7
:1020F0008093000202C010920002809100028823A7
:1021000029F0111103C081E080937E0280917E024C
:10211000882309F451C06091BD027091BE02809184
:10212000BF029091C0020E94CB249B0177FF04C0A4
:1021300022273327261B370BB901330F880B990B46
:102140000E9403252FE832EC45EF5CE30E944F2408
:1021500087FF32C01F921F921F921F921F921F92E1
:102160001F921F921F9286E18F931F9210E81F9378
:10217000B6E0BF93E5E0F6E0FF93EF930E946203C1
:102180001F921F921F921F921F921F921F921F92C7
:102190001F9287E18F931F921F9336E03F9385E054
:1021A00096E09F938F930E94620310927E020FB677
:1021B000F894DEBF0FBECDBF46E06BE388E60E9419
:1021C00052060E94D506182F0E94D506612F70E096
:1021D000762F6627682B072E000C880B990B0E9420
:1021E000032520E030E040E858E30E9426266A8775
:1021F0007B878C879D8760936602709367028093CC
:102200006802909369020E94D506182F0E94D50695
:10221000612F70E0762F6627682B072E000C880B45
:10222000990B0E94032520E030E040E858E30E942B
:1022300026262B013C016093620270936302809317
:102240006402909365020E94D506082F0E94D5066D
:10225000182FC0905E02D0905F02E0906002F09074
:1022600061028091430390914403A0914503B09192
:1022700046038E879F87A88BB98B80935A029093D1
:102280005B02A0935C02B0935D0280914B0390913E
:102290004C03A0914D03B0914E038A8B9B8BAC8B6A
:1022A000BD8B8093560290935702A0935802B0932F
:1022B00059022AE037ED43EA5DE36E857F85888920
:1022C00099890E94262624E13EE245E652E40E94D6
:1022D00059242091BD023091BE024091BF0250911D
:1022E000C0020E94B42360935E0270935F028093E9
:1022F000600290936102A70196010E94B32320918E
:1023000002023091030240910402509105020E94A2
:1023100059242DEC3CEC4CE151E40E9459246B0112
:102320007C018090CC029090CD02A090CE02B09023
:10233000CF02C501B4010E9454246E8B7F8B888F1D
:10234000998FC501B4010E9493266A8F7B8F8C8F71
:102350009D8F612F70E0702B072E000C880B990B5E
:102360000E94032520E030E040E858E30E94262642
:1023700026E636E646E85FE30E9459244B015C01FD
:102380002A8D3B8D4C8D5D8DC701B6010E9426269E
:102390009B01AC01C501B4010E94B4239B01AC01B7
:1023A0000E9426264B015C01A3019201C301B201E8
:1023B0000E9426269B01AC01C501B4010E94B423F2
:1023C0000E94A1264B015C012E893F89488D598DC1
:1023D000C701B6010E9426262A853B854C855D856E
:1023E0000E94B323A50194010E9459240E94202435
:1023F00024E13EE245E652E40E942626209137037E
:10240000309138034091390350913A030E94B4232C
:102410006A877B878C879D8760933B0370933C031F
:1024200080933D0390933E030E94420D0E9401253C
:102430002091520230915302409154025091550222
:102440000E94B32320E030E04AE754E40E9459247C
:102450006B017C0160934E0270934F028093500297
:10246000909351020E94420D0E94012560935202F6
:1024700070935302809354029093550244E065E4B4
:1024800088E60E9452060E94D506182F0E94D506A3
:10249000612F70E0762F6627682B072E000C880BC3
:1024A000990B0E94032520E030E043E053E40E94B2
:1024B000592420913F0330914003409141035091B2
:1024C00042030E94B3232B013C01609343037093AA
:1024D000440380934503909346030E94D506182F2A
:1024E0000E94D506612F70E0762F6627682B072E95
:1024F000000C880B990B0E94032520E030E043E09C
:1025000053E40E945924209147033091480340919D
:10251000490350914A030E94B3234B015C0160932D
:102520004B0370934C0380934D0390934E032E8581
:102530003F8548895989C301B2010E94B3230E9493
:10254000CB249B0177FF04C022273327261B370BA0
:102550002B35310564F08E859F85A889B9898093D4
:10256000430390934403A0934503B09346032A8901
:102570003B894C895D89C501B4010E94B3230E9447
:10258000CB249B0177FF04C022273327261B370B60
:10259000293C310564F08A899B89AC89BD89809387
:1025A0004B0390934C03A0934D03B0934E03409084
:1025B0004B0350904C0360904D0370904E032FE6F8
:1025C00032E143E85CEBC301B2010E942626209170
:1025D00043033091440340914503509146030E94C8
:1025E000B4234B015C0160934303709344038093D5
:1025F0004503909346039B01AC01C701B6010E94BD
:1026000026269B01AC0160914A0270914B02809199
:102610004C0290914D020E94B42360934A02709341
:102620004B0280934C0290934D02A3019201C7018B
:10263000B6010E9426262091330330913403409145
:102640003503509136030E94B4236E877F87888BB1
:10265000998B609333037093340380933503909385
:10266000360380910602882361F08A859B85AC85BC
:10267000BD8580934A0290934B02A0934C02B09385
:102680004D02C0904A02D0904B02E0904C02F09074
:102690004D02A70196016A857B858C859D850E94E8
:1026A000B3230E94CB24645D7F4F009148021091B8
:1026B00049026935710508F042C024EA30E74DE768
:1026C0005FE3C701B6010E9426266B017C0120E072
:1026D00037ED43E25CE36A857B858C859D850E94AE
:1026E00026269B01AC01C701B6010E94B4239B01C1
:1026F000AC0160934A0270934B0280934C0290931A
:102700004D02012B09F44AC06A857B858C859D8525
:102710000E94B3230E94CB24665F7F4F6531710511
:10272000E8F510924902109248028091B702909108
:10273000B80201969093B8028093B7022FC00B3075
:10274000110538F40F5F1F4F1093490200934802A0
:1027500025C024EA30E74DE75FE3C701B6010E94D8
:1027600026266B017C0120E037ED43E25CE36A85BD
:102770007B858C859D850E9426269B01AC01C70127
:10278000B6010E94B42360934A0270934B02809377
:102790004C0290934D020E311105A0F2C0904A02F6
:1027A000D0904B02E0904C02F0904D028E859F85B8
:1027B000A889B9898093E8029093E902A093EA027C
:1027C000B093EB02C092EC02D092ED02E092EE02E6
:1027D000F092EF024092F0025092F1026092F20207
:1027E0007092F3028092F4029092F502A092F602A7
:1027F000B092F70224E13EE245E652E4C501B4019D
:102800000E94592460937202709373028093740241
:102810009093750224E13EE245E652E4C701B60119
:102820000E9459246093CC027093CD028093CE0213
:102830009093CF020E94CB249B0177FF04C02227F4
:102840003327261B370BB901330F880B990B0E94D6
:1028500003252AE939E949E15FE30E944F2487FF14
:102860001092D902AE01475F5F4FBE016B5F7F4F91
:1028700080E10E94090B2B013C01AE01485F5F4FD4
:10288000BE016C5F7F4F81E10E94090B4B015C012F
:10289000AE01495F5F4FBE016D5F7F4F82E10E94D5
:1028A000090B6B017C01AE014A5F5F4FBE016F5F98
:1028B0007F4F83E10E94090B6C0D7D1D8E1D9F1DB6
:1028C0000E94032520E030E040E05FE30E942626DE
:1028D00020E039EF49E357E40E9459246B017C0161
:1028E0006093BD027093BE028093BF029093C002BA
:1028F000C301B201680D791D8A1D9B1D0E9403252D
:1029000020E030E040E05FE30E94262620E039EF3F
:1029100049E357E40E9459244B015C0160936E0225
:1029200070936F02809370029093710226E636E6F0
:1029300046E65FE360916A0270916B0280916C02DF
:1029400090916D020E9426262B013C0120ED3CEC6B
:102950004CEC5DE3C701B6010E9426269B01AC0149
:10296000C301B2010E94B42360936A0270936B02A8
:1029700080936C0290936D02A501940160E070E079
:10298000CB010E94B3234B015C012DEC3CEC4CE4E9
:102990005EE30E94192618164CF080927A029092FB
:1029A0007B02A0927C02B0927D020CC08DEC9CEC6C
:1029B000ACE4BEE380937A0290937B02A0937C0206
:1029C000B0937D022DEC3CEC4CE45EEB60917A021E
:1029D00070917B0280917C0290917D020E944F2435
:1029E00087FF0CC08DEC9CECACE4BEEB80937A02CC
:1029F00090937B02A0937C02B0937D021091000221
:102A0000112351F180917E02811126C02091020292
:102A100030910302409104025091050260917A02C4
:102A200070917B0280917C0290917D020E9426260B
:102A30009B01AC01609176027091770280917802DF
:102A4000909179020E94B42360937602709377028A
:102A500080937802909379022DEC3CEC4CEC5EE391
:102A6000609176027091770280917802909179025C
:102A70000E941926181664F48DEC9CECACECBEE3B5
:102A80008093760290937702A0937802B0937902B4
:102A90002DEC3CEC4CEC5EEB609176027091770291
:102AA00080917802909179020E944F2487FF0CC098
:102AB0008DEC9CECACECBEEB8093760290937702AD
:102AC000A0937802B0937902A70196016091FC026D
:102AD0007091FD028091FE029091FF020E94B3234B
:102AE0006B017C0160938702709388028093890256
:102AF00090938A0226E636E646E65FE360917F021F
:102B00007091800280918102909182020E9426261B
:102B10004B015C0120ED3CEC4CEC5DE3C701B601E0
:102B20000E9426269B01AC01C501B4010E94B4237A
:102B30004B015C0160937F0270938002809381025D
:102B4000909382022091020230910302409104028C
:102B500050910502C701B6010E94262620918302EA
:102B60003091840240918502509186020E94B423E4
:102B70002B013C012DEC3CEC4CEC5EE30E94192651
:102B800018164CF0409283025092840260928502A3
:102B9000709286020CC08DEC9CECACECBEE3809392
:102BA000830290938402A0938502B09386022DEC59
:102BB0003CEC4CEC5EEB609183027091840280915E
:102BC0008502909186020E944F2487FF0CC08DECF5
:102BD0009CECACECBEEB8093830290938402A093B8
:102BE0008502B09386020091D902011110C01092A3
:102BF0007602109277021092780210927902109267
:102C000083021092840210928502109286020E9422
:102C1000420D4090970250909802609099027090F7
:102C20009A0264197509860997090E94012520E016
:102C300030E04AE754E40E9459246A877B878C87F6
:102C40009D87609302027093030280930402909325
:102C500005020E94420D6093970270939802809340
:102C6000990290939A028091AF029091B002A09144
:102C7000B102B091B2028A8B9B8BAC8BBD8B8093DF
:102C8000930290939402A0939502B0939602809140
:102C9000A7029091A802A091A902B091AA028E8BDE
:102CA0009F8BA88FB98F80938F0290939002A093EF
:102CB0009102B09392028091B9029091BA02A091D0
:102CC000BB02B091BC028A8F9B8FAC8FBD8F80936B
:102CD0008B0290938C02A0938D02B0938E022AE017
:102CE00037ED43E25CE3609183027091840280914E
:102CF0008502909186020E9426262B013C012DEC34
:102D00003CEC4CEC5DE3C701B6010E9426269B011A
:102D1000AC01C301B2010E94B4236B017C012DEC14
:102D20003CEC4CEC5DE3C501B4010E9426269B01FE
:102D3000AC01C701B6010E94B4236B017C01609312
:102D4000B9027093BA028093BB029093BC02112324
:102D5000A1F180917E02811130C02DEC3CEC4CE45D
:102D60005DE360917A0270917B0280917C02909188
:102D70007D020E9426264B015C012AE037ED43E2EA
:102D80005CE3609176027091770280917802909175
:102D900079020E9426269B01AC01C501B4010E9464
:102DA000B423A70196010E94B4236093B9027093E3
:102DB000BA028093BB029093BC024090CC02509028
:102DC000CD026090CE027090CF028091B9029091B6
:102DD000BA02A091BB02B091BC028E8F9F8FA8A3B4
:102DE000B9A39C01AD01C301B2010E94B3236E8758
:102DF0007F87888B998B6093AF027093B00280932A
:102E0000B1029093B2029B01AC016A857B858C85EF
:102E10009D850E9426266B017C012091AB0230919A
:102E2000AC024091AD025091AE020E94B4234B011E
:102E30005C0129E23CE54FE05DE30E94192618168B
:102E40004CF08092AB029092AC02A092AD02B09294
:102E5000AE020CC089E29CE5AFE0BDE38093AB021B
:102E60009093AC02A093AD02B093AE0229E23CE590
:102E70004FE05DEB6091AB027091AC028091AD02CE
:102E80009091AE020E944F2487FF0CC089E29CE51E
:102E9000AFE0BDEB8093AB029093AC02A093AD0288
:102EA000B093AE02011108C01092AB021092AC02B6
:102EB0001092AD021092AE0220919F023091A002BA
:102EC0004091A1025091A202C701B6010E94B42311
:102ED0006B017C0129E23CE54FE05DE30E9419268D
:102EE00018164CF0C0929F02D092A002E092A1026C
:102EF000F092A2020CC089E29CE5AFE0BDE38093B2
:102F00009F029093A002A093A102B093A20229E293
:102F10003CE54FE05DEB60919F027091A0028091D3
:102F2000A1029091A2020E944F2487FF0CC089E267
:102F30009CE5AFE0BDEB80939F029093A002A0932D
:102F4000A102B093A2022E853F85488959896A89DA
:102F50007B898C899D890E94262620E030E0A9018A
:102F60000E944F2487FD02C0011108C010929F02E9
:102F70001092A0021092A1021092A2022A8D3B8D03
:102F80004C8D5D8D6E8D7F8D88A199A10E94B3239C
:102F90002A853B854C855D850E9459249B01AC01A7
:102FA0006091720270917302809174029091750227
:102FB0000E94B3236B017C016093A7027093A80267
:102FC0008093A9029093AA0226E636E646E65FE3DE
:102FD00060919B0270919C0280919D0290919E0253
:102FE0000E9426264B015C0120ED3CEC4CEC5DE39D
:102FF000C701B6010E9426269B01AC01C501B401A0
:103000000E94B4234B015C0160939B0270939C026D
:1030100080939D0290939E022E893F89488D598D01
:10302000C701B6010E94B3232A853B854C855D8587
:103030000E9459246A8B7B8B8C8B9D8B6093A3029F
:103040007093A4028093A5029093A602C301B201DB
:103050000E94E5262DEC3CEC4CE151E40E94262632
:103060002B013C0120E030E040E751E46E857F8594
:10307000888999890E9426269B01AC01C301B2016F
:103080000E94B4232B013C0120E030E040E450E4F6
:103090006091AB027091AC028091AD029091AE0252
:1030A0000E9426269B01AC01C301B2010E94B423F9
:1030B0002B013C0120E030E040E051E4C701B601C3
:1030C0000E9426266B017C012AE939E949E15FE388
:1030D0006A897B898C899D890E9426269B01AC0187
:1030E000C701B6010E94B4236B017C0120E030E0EF
:1030F00040E251E460919F027091A0028091A10290
:103100009091A2020E9426269B01AC01C701B60144
:103110000E94B4239B01AC01C301B2010E94B423FD
:103120006B017C01A5019401C501B4010E94B42387
:103130009B01AC01C701B6010E94B4232A853B85DF
:103140004C855D850E9426262091B3023091B40201
:103150004091B5025091B6020E94B4236B017C01EC
:1031600020E030E040E450E40E94192618164CF0AC
:10317000C092B302D092B402E092B502F092B602CD
:103180000CC080E090E0A0E4B0E48093B3029093A0
:10319000B402A093B502B093B60220E030E040E460
:1031A00050EC6091B3027091B4028091B50290919D
:1031B000B6020E944F2487FF0CC080E090E0A0E49C
:1031C000B0EC8093B3029093B402A093B502B09395
:1031D000B60201110C9443221092B3021092B40271
:1031E0001092B5021092B602C12CD12C76012601A4
:1031F0003701C301B2010E94D2241F926F931F9224
:103200007F931F928F93892F9927AA27BB279F937C
:103210008F931F9283E28F931F9210E81F9396E083
:103220009F93A5E0B6E0BF93AF930E946203C701EE
:10323000B6010E94D2241F926F931F927F931F9218
:103240008F93892F9927AA27BB279F938F931F922C
:1032500084E28F931F921F93F6E0FF9325E036E000
:103260003F932F930E94620380914F0380936303E7
:103270008091280380934F030FB6F894DEBF0FBEF2
:10328000CDBF823009F465C0B0F48823A9F1813044
:1032900009F0B0C080913B0390913C03A0913D03A5
:1032A000B0913E038093290390932A03A0932B03AC
:1032B000B0932C0337C0843009F47CC008F461C09B
:1032C000853009F097C08091E8029091E902A091C1
:1032D000EA02B091EB028093290390932A03A09312
:1032E0002B03B0932C038091580390915903A09124
:1032F0005A03B0915B0376C024E13EE245E652E416
:103300006091B9027091BA028091BB029091BC02A7
:103310000E9426266093290370932A0380932B032F
:1033200090932C0324E13EE245E652E46091CC0206
:103330007091CD028091CE029091CF020E942626FC
:1033400060932D0370932E0380932F03909330038B
:1033500051C06091B7027091B80280E090E00E9485
:1033600001256093290370932A0380932B03909384
:103370002C036091660370E080E090E00E940125DC
:10338000DFCF8091E8029091E902A091EA02B0912A
:10339000EB028093290390932A03A0932B03B0930D
:1033A0002C0310922D0310922E0310922F031092D3
:1033B000300320C08091FC029091FD02A091FE029A
:1033C000B091FF028093290390932A03A0932B03CB
:1033D000B0932C0380910C0390910D03A0910E03E8
:1033E000B0910F0380932D0390932E03A0932F038E
:1033F000B09330038091D902882321F08FEF80931E
:10340000310302C0109231030091640310916503EF
:10341000F801858D882309F4CAC00190F081E02D60
:103420000280F381E02DC80119956801F7E1CF0E04
:10343000D11CD801ED91FC910484F585E02DC801E3
:103440001995882309F488C0D801ED91FC91028474
:10345000F385E02DC8011995F801258936892115D4
:10346000310511F4853529F7D80151964D915C91BC
:103470005297B9016F5F7F4F56967C936E93559725
:10348000FA01E20FF31F8083682FC6010E94830AAE
:10349000F80125893689838994898217930728F44E
:1034A00061E070E0C8010E940D04D80155968D912D
:1034B0009C9156978630910508F4BBCF5196ED91BB
:1034C000FC9152978180928053962D913C91549714
:1034D0002815390528F3B6E08B16910408F38815F2
:1034E0009905B1F4F8018789908D892BC9F6C80137
:1034F0000E9457048823A1F2D80156961C921E926E
:103500005597EFEFFFEF5896FC93EE93579791CFB7
:103510008816990608F08DCF2FEF3FEF3A83298365
:103520007F015F01A80CB91CAE14BF0441F0D701A4
:103530006D917D01CE0101960E94830AF5CF8981AC
:103540009A81892B09F0ACCFC8010E9457048823C7
:1035500009F4A6CFB401A6CF0E94420DF801C18C98
:10356000D28CE38CF48CDC01CB018C199D09AE0963
:10357000BF0989389341A105B105C8F0D801569615
:103580001C921E925597EFEFFFEF5896FC93EE9327
:1035900057971F96ED91FC91509710820E94420D13
:1035A000D80159966D937D938D939C935C979091E0
:1035B00001028091D902992331F12CE731E0829FF9
:1035C0006001839FD00C1124BAE0CB0ED11C0D2CCE
:1035D000000CEE08FF080E94420D00914402109179
:1035E00045022091460230914702DC01CB01801B4D
:1035F000910BA20BB30BC816D906EA06FB0678F4AA
:103600000E946E0A0CC02EE83EEF829F6001839FED
:10361000D00C1124EAE7CE1AEEEFDE0AD8CF809163
:10362000E8029091E902A091EA02B091EB028A8B44
:103630009B8BAC8BBD8B23E333E343E75FE360916C
:10364000D4027091D5028091D6029091D7020E9447
:1036500026266B017C0120ED3CEC4CE45DE36A899D
:103660007B898C899D890E9426269B01AC01C7011C
:10367000B6010E94B4232B013C016093D4027093E5
:10368000D5028093D6029093D702C09025038090F4
:10369000D0029090D102A090D202B090D3020C2D13
:1036A0000C2C000C110B17FF03C01195019511098B
:1036B000C501B4010E94CB249B0177FF04C02227DF
:1036C0003327261B370B0C2C000CDD08EE08FF08F7
:1036D000C701B60120173107ECF40E94032520ED45
:1036E0003CEC4CE45DE30E9426266A877B878C874E
:1036F0009D8723E333E343E75FE3C501B4010E9401
:1037000026269B01AC016A857B858C859D850E9460
:10371000B42302C00E9403256093D0027093D102AB
:103720008093D2029093D30220E030E84BEB54E434
:103730006091CC027091CD028091CE029091CF0227
:103740000E94262620E030E040E053E40E94B423AB
:103750006A877B878C879D876093C8027093C902B4
:103760008093CA029093CB02C701B6010E94032541
:103770002091D0023091D1024091D2025091D302D7
:103780000E94B32320E030E040E752E40E94262666
:103790006B017C01A30192016A897B898C899D89D7
:1037A0000E94B32320E030E040E751E40E94262647
:1037B0009B01AC01C701B6010E94B42320E030E0B8
:1037C00040E053E40E94B4232B013C016093C40207
:1037D0007093C5028093C6029093C7028091DF0266
:1037E000882309F462C00091C2021091C302B8019B
:1037F000012E000C880B990B0E9403254B015C01E4
:103800009B01AC0160E070E086E194E40E94B32388
:1038100020E030E040EA50E40E9459246B017C0132
:1038200020E030E040EA51E4C501B4010E9459248F
:103830004B015C010E9454249B01AC01C701B601FD
:103840000E942626A30192010E94B4236093C40221
:103850007093C5028093C6029093C702C501B4015C
:103860000E9493269B01AC01C701B6010E94262647
:103870002A853B854C855D850E94B4236093C802F0
:103880007093C9028093CA029093CB020F5F1F4FBF
:103890001093C3020093C2020935124034F0109213
:1038A000DF021092C3021092C2021091C1021111E4
:1038B00005C06FEF81E993E00E9496076FEF81E901
:1038C00093E00E9496071130B9F46091C80270919C
:1038D000C9028091CA029091CB020E94CB2477FD4D
:1038E00006C06F3F710524F06EEF70E001C060E02C
:1038F00081E993E00E9496076091C4027091C5022D
:103900008091C6029091C7020E94CB2477FD06C029
:103910006F3F710524F06EEF70E001C060E081E957
:1039200093E00E949607123019F520E030E048E459
:1039300052E46091BD027091BE028091BF029091ED
:10394000C0020E94262620E030E040E053E40E94BE
:10395000B4230E94CB2477FD06C06F3F710524F08D
:103960006EEF70E001C060E081E993E00E9496078D
:1039700060E081E993E00E9496071F5F133019F021
:103980001093C10202C01092C10260912603062E5C
:10399000000C770B880B990B0E94032520912103C3
:1039A0003091220340912303509124030E944F241D
:1039B000811115C060912503062E000C770B880B32
:1039C000990B0E94032520911D0330911E03409105
:1039D0001F03509120030E944F24882351F00E941E
:1039E000420D6093190370931A0380931B03909305
:1039F0001C0360912503062E000C770B880B990B96
:103A00000E94032560931D0370931E0380931F0380
:103A10009093200360912603062E000C770B880BF1
:103A2000990B0E94032560932103709322038093D6
:103A30002303909324030E94420D009119031091D7
:103A40001A0320911B0330911C03DC01CB01801B66
:103A5000910BA20BB30B89389341A105B10520F05E
:103A600081E08093180302C010921803809118031C
:103A70008111C8C060912603772761950CF4709579
:103A8000072E000C880B990B0E9403256B017C010B
:103A900020E030E040E251E40E94192618165CF460
:103AA00020E030E040E251E4C701B6010E94B323B8
:103AB0004B015C0103C0812C912C540120E030E0CB
:103AC00040E251ECC701B6010E944F2487FF0AC0B3
:103AD00020E030E040E251E4C701B6010E94B42387
:103AE0004B015C012DEC3CEC4CE45FE36091140372
:103AF0007091150380911603909117030E9426265A
:103B00006B017C012AE939E949E95FE3C501B401A8
:103B10000E94262620E030E048EC52E40E9459241E
:103B20002CEC3CEC4CE45EE30E9426269B01AC01AD
:103B3000C701B6010E94B423609314037093150368
:103B4000809316039093170360912503062E000CB3
:103B5000770B880B990B0E9403256B017C0120E0F9
:103B600030E040E251E40E94192618165CF420E08F
:103B700030E040E251E4C701B6010E94B3234B019B
:103B80005C0103C0812C912C540120E030E040E224
:103B900051ECC701B6010E944F2487FF0AC020E004
:103BA00030E040E251E4C701B6010E94B4234B016A
:103BB0005C012DEC3CEC4CE45FE3609110037091F0
:103BC000110380911203909113030E9426266B012A
:103BD0007C012DEC3CEC4CE45FE3C501B4010E9498
:103BE000262620E030E048EC52E40E9459242CECD8
:103BF0003CEC4CE45EE30E9426269B01AC01C7012D
:103C0000B6012CC02DEC3CEC4CE45FE36091140356
:103C10007091150380911603909117030E94262638
:103C200020E030E0A9010E94B42360931403709354
:103C3000150380931603909317032DEC3CEC4CE492
:103C40005FE36091100370911103809112039091D2
:103C500013030E94262620E030E0A9010E94B4232D
:103C600060931003709311038093120390931303D6
:103C70008091020290910302A0910402B09105028A
:103C80008E879F87A88BB98B20E030E040E850E416
:103C9000BC01CD010E9426261B012C01C0900C0303
:103CA000D0900D03E0900E03F0900F03A701960152
:103CB0000E94B4236E8B7A8F8E8F9AA320E030E01F
:103CC00040E050E40E944F2487FD05C050E040E0F2
:103CD00030E020E404C05E894A8D3E8D2AA1852F04
:103CE000942FA32FB22F8093080390930903A093DE
:103CF0000A03B0930B03A2019101C701B6010E9410
:103D0000B3233B018C0120E030E040E050EC0E9406
:103D1000192618162CF050E040E030E020EC04C0EA
:103D2000562D472D302F212F852F942FA32FB22FC3
:103D30008093040390930503A0930603B0930703B5
:103D40008091140390911503A0911603B09117036D
:103D50008A879B87AC87BD87809000039090010382
:103D6000A0900203B0900303A5019401BC01CD0112
:103D70000E941926181694F5A7019601C201B101F7
:103D80000E944F2487FF2AC0A7019601C701B601F0
:103D90000E94262620E030E040E85EE30E942626CE
:103DA00020E030E040E05FE30E942626A501940178
:103DB0000E94B4239B01AC016A857B858C859D851F
:103DC0000E944F24181654F0C301D80180930803B1
:103DD00090930903A0930A03B0930B03A5019401E8
:103DE0006A857B858C859D850E944F2487FF40C016
:103DF00020E030E040E850EC6E857F858889998925
:103E00000E9426269B01AC01C701B6010E944F24E7
:103E100087FF2EC0A7019601C701B6010E94262682
:103E200020E030E040E85EE30E94262620E030E01B
:103E300040E05FE30E9426269B01AC01C501B4016E
:103E40000E94B3239B01AC016A857B858C859D858F
:103E50000E94192687FD0CC08E899A8DAE8DBAA15D
:103E60008093040390930503A0930603B093070384
:103E7000209108033091090340910A0350910B03EC
:103E80006E857F85888999890E942626A5019401DF
:103E90000E94B4232B013C012AE939E949E95FE397
:103EA0000E944F2487FD07C09AE9492E99E9592EAF
:103EB000652C9FE3792E20910403309105034091F6
:103EC0000603509107036E857F85888999890E9432
:103ED0002626A50194010E94B4236B017C012AE9E6
:103EE00039E949E95FEB0E94192618163CF08AE986
:103EF000C82E89E9D82EED2C8FEBF82EA301920164
:103F00006A857B858C859D850E94192618166CF024
:103F10008A859B85AC85BD858093FC029093FD02CC
:103F2000A093FE02B093FF0208C04092FC025092A0
:103F3000FD026092FE027092FF022091FC0230911D
:103F4000FD024091FE025091FF02C701B6010E949E
:103F50001926181644F4C092FC02D092FD02E09299
:103F6000FE02F092FF02C090FC02D090FD02E090B1
:103F7000FE02F090FF02A5019401C701B6010E9464
:103F8000B3232E853F85488959890E94592460931F
:103F90000C0370930D0380930E0390930F03C09254
:103FA0000003D0920103E0920203F0920303809099
:103FB000100390901103A0901203B090130380920D
:103FC000F8029092F902A092FA02B092FB022091BC
:103FD000E4023091E5024091E6025091E7026A89DD
:103FE0007B898C899D890E94B3232091E0023091C6
:103FF000E1024091E2025091E3020E94B4236B017E
:104000007C016093E0027093E1028093E20290935E
:10401000E3028A899B89AC89BD898093E4029093ED
:10402000E502A093E602B093E702C501B4010E9445
:10403000CB249B0177FF04C022273327261B370B95
:10404000B901330F880B990B0E9403252FE832EC3E
:1040500045EF5CE30E944F2487FF19C0C701B601FA
:104060000E94CB249B0177FF04C022273327261B05
:10407000370B213431401CF081E08093DF02109235
:10408000E0021092E1021092E2021092E30210911B
:10409000DE021093DD0283E00E94890C21E001978B
:1040A00009F420E040E06EED72E0822F0E949A0A4F
:1040B0008091DE02811106C0112321F081E08093FE
:1040C000DC0202C01092DC028091DB028093DA02F3
:1040D00084E00E94890C21E0019709F420E041E08E
:1040E0006BED72E0822F0E949A0A9091D902809122
:1040F000DC02882321F081E089278093D902209176
:10410000270321110AC08091D802882331F0309111
:10411000D90281E083278093D90281E0211101C077
:1041200080E08093D8028091D902981709F458C092
:104130001092330310923403109235031092360319
:104140001F921F921F921F921F921F921F921F92E7
:104150001F9286E18F931F9210E81F93A6E0AF9302
:10416000E5E0F6E0FF93EF930E9462031F921F9237
:104170001F921F921F921F921F921F921F9287E100
:104180008F931F921F9336E03F9385E096E09F93B5
:104190008F930E9462031092FC021092FD02109213
:1041A000FE021092FF021092F8021092F902109291
:1041B000FA021092FB02109214031092150310924F
:1041C000160310921703109210031092110310920D
:1041D0001203109213030FB6F894DEBF0FBECDBFCB
:1041E00080916303853009F042C10E94420D009125
:1041F0005E0310915F032091600330916103DC0145
:10420000CB01801B910BA20BB30B85369105A10549
:10421000B105E0F010925D0310925C031092580318
:104220001092590310925A0310925B031092540398
:104230001092550310925603109257031092500398
:1042400010925103109252031092530380914F0326
:1042500000915C0310915D03853009F07AC02091D4
:104260004703309148034091490350914A036091BC
:104270004B0370914C0380914D0390914E030E942B
:10428000B4239B01AC016091580370915903809154
:104290005A0390915B030E94B42360935803709378
:1042A000590380935A0390935B0320913F0330910D
:1042B0004003409141035091420360914303709148
:1042C000440380914503909146030E94B4239B01CF
:1042D000AC01609154037091550380915603909105
:1042E00057030E94B4236093540370935503809343
:1042F0005603909357032091370330913803409130
:10430000390350913A0360913B0370913C038091D3
:104310003D0390913E030E94B3239B01AC01609149
:1043200050037091510380915203909153030E9466
:10433000B42360935003709351038093520390937E
:104340005303B8016F5F7F4F70935D0360935C030D
:1043500084C0033311050CF480C0B801110F880B21
:10436000990B0E9403259B01AC0160915803709149
:10437000590380915A0390915B030E9459246093E2
:104380004703709348038093490390934A0367E47B
:1043900073E080E190E00E94430A60915C037091B9
:1043A0005D03072E000C880B990B0E9403259B01CF
:1043B000AC01609154037091550380915603909124
:1043C00057030E94592460933F03709340038093E6
:1043D0004103909342036FE373E08AE090E00E9410
:1043E000430A109233031092340310923503109253
:1043F0003603C0905003D0905103E0905203F090E8
:104400005303F7FAF094F7F8F09460915C0370911D
:104410005D03072E000C880B990B0E9403259B015E
:10442000AC01C701B6010E94592460933703709311
:1044300038038093390390933A0367E373E086E18E
:1044400090E00E94430A67E373E08CE190E00E94F1
:10445000430A10925D0310925C030E94420D609328
:104460005E0370935F0380936003909361031092E7
:1044700006029091620381E08927809362030E9483
:1044800005080C941410C090B302D090B402E090D0
:10449000B502F090B6028090F8029090F902A090D8
:1044A000FA02B090FB02A5019401C701B6010E9477
:1044B000B32320E039EF49E357E40E9426262B017D
:1044C0003C01A5019401C701B6010E94B42320E07C
:1044D00039EF49E357E40E9426266B017C010C94D6
:1044E000F91881E00C94480F2BE630E00C94600F33
:1044F00020E030E00C94600F823359F0833361F098
:10450000843369F092EC980F983060F492EC0C943C
:10451000670F88E00C946D0F84E00C946D0F82E0BF
:104520000C946D0F81E00C946D0FA8E6B0E00C9434
:10453000370FE1E9F3E01382128248EE53E060E0C6
:1045400070E0448355836683778383E292E09183AE
:10455000808325E331E03587248724E331E0378702
:10456000268720E331E0318B208B21E331E0338B50
:10457000228B22E331E0358B248B26E331E0378B2D
:10458000268B118E128E138E148EEEE2F4E01382BF
:10459000128244835583668377839183808325EDDC
:1045A00030E03587248724ED30E03787268720EDFB
:1045B00030E0318B208B21ED30E0338B228B22EDEC
:1045C00030E0358B248B26ED30E0378B268B118E37
:1045D000128E138E148EE8E6F5E013821282448365
:1045E000558366837783918380832DEC30E0358714
:1045F00024872CEC30E03787268728EC30E0318B9D
:10460000208B29EC30E0338B228B2AEC30E0358B89
:10461000248B2EEC30E0378B268B118E128E138E6E
:10462000148EABECB4E013961C921E921297149663
:104630004D935D936D937C93179711969C938E93F6
:1046400085EC90E01D969C938E931C9784EC90E0F3
:104650001F969C938E931E9780EC90E051969C93AE
:104660008E93509781EC90E053969C938E93529743
:1046700082EC90E055969C938E93549786EC90E054
:1046800057969C938E93569759961C9259975A9683
:104690001C925A975B961C925B975C961C92A5E0C5
:1046A000B6E013961C921E92129714964D935D934A
:1046B0006D937C93179785E392E011969C938E936C
:1046C00040E157E260E070E01E964D935D936D937C
:1046D0007C9351975396FC93EE93529755961C9268
:1046E0001E9254970895F999FECF92BD81BDF89A14
:1046F000992780B50895262FF999FECF1FBA92BD4C
:1047000081BD20BD0FB6F894FA9AF99A0FBE0196B2
:104710000895A1E21A2EAA1BBB1BFD010DC0AA1F02
:10472000BB1FEE1FFF1FA217B307E407F50720F01A
:10473000A21BB30BE40BF50B661F771F881F991F95
:104740001A9469F760957095809590959B01AC01DE
:10475000BD01CF010895EE0FFF1F881F8BBF07908B
:10476000F691E02D19945058BB27AA270E94CB231D
:104770000C94CB250E94922538F00E94992520F0B8
:1047800039F49F3F19F426F40C9468250EF4E09553
:10479000E7FB0C946225E92F0E94F02558F3BA1725
:1047A000620773078407950720F079F4A6F50C9447
:1047B00012260EF4E0950B2EBA2FA02D0B01B90195
:1047C00090010C01CA01A0011124FF27591B99F087
:1047D000593F50F4503E68F11A16F040A22F232F93
:1047E000342F4427585FF3CF469537952795A795E3
:1047F000F0405395C9F77EF41F16BA0B620B730B8A
:10480000840BBAF09150A1F0FF0FBB1F661F771FFA
:10481000881FC2F70EC0BA0F621F731F841F48F4AF
:10482000879577956795B795F7959E3F08F0B0CF38
:104830009395880F08F09927EE0F9795879508951F
:10484000DF93DD27B92FBF7740E85FE31616170621
:1048500048075B0718F4D92F0E941E269F938F9359
:104860007F936F930E94E126E8E0F1E00E946B25C0
:104870000E94CB252F913F914F915F910E94392645
:10488000DD2351F09058A2EA2AED3FE049EC5FE3C6
:10489000D0785D270E94CB23DF910C94CB250E941A
:1048A0003E2508F481E008950E94A225E3950C942A
:1048B000DC250E946D240C94CB250E94992558F08C
:1048C0000E94922540F029F45F3F29F00C94622564
:1048D00051110C9413260C9468250E94F02568F35E
:1048E0009923B1F3552391F3951B550BBB27AA27A9
:1048F00062177307840738F09F5F5F4F220F331FE3
:10490000441FAA1FA9F335D00E2E3AF0E0E832D0AA
:1049100091505040E695001CCAF72BD0FE2F29D0AD
:10492000660F771F881FBB1F261737074807AB077F
:10493000B0E809F0BB0B802DBF01FF2793585F4FF4
:104940003AF09E3F510578F00C9462250C941326A2
:104950005F3FE4F3983ED4F3869577956795B795D6
:10496000F7959F5FC9F7880F911D9695879597F9E1
:104970000895E1E0660F771F881FBB1F621773075A
:104980008407BA0720F0621B730B840BBA0BEE1F6F
:1049900088F7E09508950E94D2246894B1110C9490
:1049A000132608950E94F82588F09F5798F0B92F94
:1049B0009927B751B0F0E1F0660F771F881F991F54
:1049C0001AF0BA95C9F714C0B13091F00E941226BE
:1049D000B1E008950C941226672F782F8827B85FCE
:1049E00039F0B93FCCF3869577956795B395D9F7AC
:1049F0003EF490958095709561957F4F8F4F9F4FB6
:104A00000895E89409C097FB3EF4909580957095C1
:104A100061957F4F8F4F9F4F9923A9F0F92F96E90A
:104A2000BB279395F695879577956795B795F1117F
:104A3000F8CFFAF4BB0F11F460FF1BC06F5F7F4F1C
:104A40008F4F9F4F16C0882311F096E911C077232E
:104A500021F09EE8872F762F05C0662371F096E837
:104A6000862F70E060E02AF09A95660F771F881F06
:104A7000DAF7880F9695879597F90895990F0008AA
:104A8000550FAA0BE0E8FEEF16161706E807F90720
:104A9000C0F012161306E407F50798F0621B730BBB
:104AA000840B950B39F40A2661F0232B242B252B3C
:104AB00021F408950A2609F4A140A6958FEF811DDF
:104AC000811D089597F99F6780E870E060E0089580
:104AD0009FEF80EC0895DF93CF931F930F93FF9286
:104AE000EF92DF927B018C01689406C0DA2EEF0111
:104AF0000E943926FE01E894A591259135914591B2
:104B00005591A6F3EF010E94CB23FE019701A80166
:104B1000DA9469F7DF90EF90FF900F911F91CF919A
:104B2000DF91089500240A94161617061806090640
:104B3000089500240A941216130614060506089513
:104B40000C9468250E94F825D8F3E894E0E0BB2790
:104B50009F57F0F02AED3FE049EC06C0EE0FBB0F87
:104B6000661F771F881F28F0B23A62077307840711
:104B700028F0B25A620B730B840BE3959A9572F787
:104B8000803830F49A95BB0F661F771F881FD2F7C5
:104B900090480C940C27092E0394000C11F48823E0
:104BA00052F0BB0F40F4BF2B11F460FF04C06F5FE5
:104BB0007F4F8F4F9F4F0895EF93E0FF07C0A2EA0A
:104BC0002AED3FE049EC5FEB0E94CB230E94CB250E
:104BD0000F90039401FC9058E5E3F1E00C941F273B
:104BE00057FD9058440F551F59F05F3F71F047959E
:104BF000880F97FB991F61F09F3F79F08795089583
:104C0000121613061406551FF2CF4695F1DF08C0A1
:104C1000161617061806991FF1CF869571056105BE
:104C200008940895E894BB2766277727CB0197F966
:104C300008950E943E2508F48FEF08959B01AC0172
:104C400060E070E080E89FE30C9459240E943926CC
:104C50000C94CB250E94922538F00E94992520F0D3
:104C6000952311F00C9462250C94682511240C9462
:104C700013260E94F02570F3959FC1F3950F50E025
:104C8000551F629FF001729FBB27F00DB11D639FFE
:104C9000AA27F00DB11DAA1F649F6627B00DA11DA4
:104CA000661F829F2227B00DA11D621F739FB00D4A
:104CB000A11D621F839FA00D611D221F749F3327BA
:104CC000A00D611D231F849F600D211D822F762F53
:104CD0006A2F11249F5750409AF0F1F088234AF030
:104CE000EE0FFF1FBB1F661F771F881F915050409C
:104CF000A9F79E3F510580F00C9462250C94132671
:104D00005F3FE4F3983ED4F3869577956795B79522
:104D1000F795E7959F5FC1F7FE2B880F911D96953C
:104D2000879597F908959F930E94A2250F9007FCFD
:104D3000EE5F0C94DC2519F416F40C9468250C94A1
:104D40000A270E94F825B8F39923C9F3B6F39F57B1
:104D5000550B87FF0E9418270024A0E640EA900127
:104D600080585695979528F4805C660F771F881FAA
:104D700020F026173707480730F4621B730B840BAB
:104D8000202931294A2BA6951794079420253125EF
:104D90004A2758F7660F771F881F20F02617370716
:104DA000480730F4620B730B840B200D311D411D3D
:104DB000A09581F7B901842F9158880F9695879512
:104DC00008959B01AC010C942626DF93D92F0E94F5
:104DD000A225E695D7952AED3FE049E45FE3B33A93
:104DE0006207730784079507D7953AF0A2EA49EC62
:104DF00090680E94CB230E94CB25E3E5F1E00E945E
:104E00001F27DD0F13F00E941E26DD0F0BF49058B4
:104E1000DF9108959F3F31F0915020F48795779569
:104E20006795B795880F911D9695879597F9089581
:104E300091505040660F771F881FD2F708959F93B7
:104E40008F937F936F93FF93EF939B01AC010E942D
:104E50002626EF91FF910E946B252F913F914F9154
:104E60005F910C9426260F931F93CF93DF9382308C
:104E7000910510F482E090E0E0912E06F0912F066B
:104E800020E030E0A0E0B0E0309719F1408151819E
:104E90000281138148175907C8F08417950769F4F0
:104EA000109731F012960C93129713961C9327C00B
:104EB00000932E0610932F0622C02115310519F0FC
:104EC0004217530718F49A01BD01EF01DF01F80101
:104ED000DBCF21153105F9F0281B390B24303105C2
:104EE00080F48A819B816115710521F0FB01938318
:104EF000828304C090932F0680932E06FE01329683
:104F000044C0FE01E20FF31F8193919322503109B7
:104F1000398328833AC020912C0630912D06232B0B
:104F200041F42091090230910A0230932D0620931A
:104F30002C0620910702309108022115310541F419
:104F40002DB73EB740910B0250910C02241B350B3C
:104F5000E0912C06F0912D06E217F307A0F42E1B2A
:104F60003F0B2817390778F0AC014E5F5F4F2417CD
:104F7000350748F04E0F5F1F50932D0640932C06C7
:104F80008193919302C0E0E0F0E0CF01DF91CF91F7
:104F90001F910F910895CF93DF93009709F481C07B
:104FA000FC01329713821282A0912E06B0912F0637
:104FB000109781F420813181820F931F20912C065C
:104FC00030912D062817390751F5F0932D06E093FF
:104FD0002C0667C0ED0120E030E0CE17DF0740F47B
:104FE0004A815B819E0141155105F1F0EA01F5CF3F
:104FF000D383C28340815181840F951FC817D9077D
:1050000059F488819981840F951F0296918380833A
:105010008A819B81938382832115310529F4F09342
:105020002F06E0932E063DC0E901FB83EA834991F8
:105030005991C40FD51FEC17FD0761F48081918150
:10504000840F951F0296E901998388838281938159
:105050009B838A83E0E0F0E012968D919C911397F8
:10506000009719F0FD01DC01F7CF8D919C9111970C
:105070009D012E5F3F4F820F931F20912C06309190
:105080002D062817390769F4309729F410922F0656
:1050900010922E0602C013821282B0932D06A093A6
:1050A0002C06DF91CF91089581E090E0F8940C9464
:0650B0005928F894FFCF1F
:1050B60001010AD7233C0100003006200000000051
:1050C60000C60899089908C508B708AA089D0800E7
:1050D6000000009607E5060F07E30740071E0732A4
:1050E60007000000006D08E5069A083208410857D7
:0450F6000883080023
:00000001FF
